:020000040000FA
:100000000C9473000C949B000C949B000C949B002C
:100010000C949B000C949B000C949B000C94720815
:100020000C949B000C949B000C949B000C949B00E4
:100030000C949B000C949B000C949B000C949B00D4
:100040000C9428080C949B000C949B000C949B002F
:100050000C949B000C949B000C949B000C949B00B4
:100060000C94CE080C949B0031353A31393A333236
:1000700000536570202033203230323600020000F9
:100080000000240027002A000000000025002800AE
:100090002B000000000023002600290004040404B3
:1000A0000404040402020202020203030303030322
:1000B00001020408102040800102040810200102FF
:1000C00004081020000000080002010000030407DB
:1000D00000000000000000001F1C1F1E1F1E1F1F2D
:1000E0001E1F1E00ED0911241FBECFEFD8E0DEBF9A
:1000F000CDBF23E0AAEEB1E001C01D92AA30B20745
:10010000E1F711E0A0E0B1E0E4E4F8E202C005901C
:100110000D92AA3EB107D9F710E0C3E7D0E004C0C2
:100120002197FE010E944010C237D107C9F70E94F3
:10013000380A0C9420140C9400000895089583301C
:1001400081F028F4813099F08230A9F00895873049
:10015000A9F08830C9F08430B1F4809180008F7D9F
:1001600003C0809180008F7780938000089584B5CC
:100170008F7784BD089584B58F7DFBCF8091B000CB
:100180008F778093B00008958091B0008F7DF9CF74
:10019000CF93DF93282F30E0F901EC53FF4F849188
:1001A000F901E055FF4FD491F901E456FF4FC49196
:1001B000CC23A1F081110E949F00EC2FF0E0EE0F04
:1001C000FF1FEE56FF4FA591B491EC91ED2381E016
:1001D00090E009F480E0DF91CF91089580E090E015
:1001E000FACF1F93CF93DF93282F30E0F901EC5320
:1001F000FF4F8491F901E055FF4FD491F901E45686
:10020000FF4FC491CC23A9F0162F81110E949F00AB
:10021000EC2FF0E0EE0FFF1FE857FF4FA591B491D0
:100220008FB7F894EC91111108C0D095DE23DC93C0
:100230008FBFDF91CF911F910895DE2BF8CFCF9321
:10024000DF9390E0FC01E055FF4F249184569F4FCF
:10025000FC0184918823D1F090E0880F991FFC0164
:10026000E258FF4FA591B491FC01E857FF4FC591AB
:10027000D491623071F49FB7F8943C91822F8095AD
:1002800083238C93E8812E2B28839FBFDF91CF910E
:1002900008958FB7F894EC912E2B2C938FBFF6CF47
:1002A0003FB7F89480916B0290916C02A0916D021F
:1002B000B0916E0226B5A89B05C02F3F19F001969C
:1002C000A11DB11D3FBFBA2FA92F982F8827BC01B0
:1002D000CD01620F711D811D911D42E0660F771FD8
:1002E000881F991F4A95D1F708958F929F92AF92D8
:1002F000BF92CF92DF92EF92FF924B015C010E947E
:1003000050016B017C010E9450016C197D098E091E
:100310009F09683E734081059105A8F321E0821A88
:100320009108A108B10888EEC80E83E0D81EE11C30
:10033000F11C81149104A104B10429F7FF90EF90FE
:10034000DF90CF90BF90AF909F908F9008952FB780
:10035000F8946091670270916802809169029091AF
:100360006A022FBF08959091000189130BC0EDE739
:10037000F0E0E4919FEF90930001E13049F028F024
:10038000E23061F060E00C94F10010926E00FACF60
:1003900090916F009D7F90936F00F4CF90917000CB
:1003A0009D7F9093700091E09093B0009091B10088
:1003B000987F94609093B1001092B300E3CFAF9216
:1003C000BF92CF92DF92EF92FF920F931F93CF9342
:1003D000DF936C017B018B01040F151FEB015E01A4
:1003E000AE18BF08C017D10759F06991D601ED9139
:1003F000FC910190F081E02DC6010995892B79F7D8
:10040000C501DF91CF911F910F91FF90EF90DF9089
:10041000CF90BF90AF9008950895FC0190819053C4
:100420009A3008F090E0818180532AE0929F800DFD
:100430001124089520910B02260F3327331F2132F8
:100440003105ECF42091BD02FC0190E080E0243005
:1004500069F082E00895A0910B022191AC01455111
:100460005E4FA40FB52FB11D2C930196861798F3FC
:1004700080910B02680F60930B0280E0089581E089
:1004800008951092BD0281E08093BC021092970201
:1004900061E082E10E94F10061E083E10E94F100ED
:1004A000E9EBF0E080818E7F808380818D7F808387
:1004B00088E48093B80085E48093BC00089510928E
:1004C0007602109275021092C4021092E6020E9407
:1004D00041028DE990E090937202809371028EE95F
:1004E00090E09093700280936F020895CF93DF9312
:1004F00091E09093EA018823B9F0C091B800D091BF
:10050000BA008091BC008A7B8093BC0060E082E1ED
:100510000E94F10060E083E10E94F1000E9441022C
:10052000D093BA00C093B800DF91CF9108958F9215
:100530009F92AF92BF92CF92DF92EF92FF920F9372
:100540001F93CF93DF93D091E602D13208F0D7C04A
:10055000182FC091E5020E9450016B017C0180912F
:10056000BD0281116BC082E08093BD021093BC027A
:100570008FEF8093BB021092BA02D093B902A5EC20
:10058000B2E0E9E9F2E080E0D81391C0109298025D
:1005900080919802CC0FC82BC0939802809197024B
:1005A000813009F088C0109297020E9450016B01BF
:1005B0007C01809198028093BB008091BF02909152
:1005C000C002A091C102B091C202892B8A2B8B2B51
:1005D000A1F00E9450010091BF021091C002209131
:1005E000C1023091C2026C197D098E099F0906175C
:1005F00017072807390708F442C08091BC0083FD23
:10060000D8CF85EC8093BC000E9450016B017C0127
:100610008091BD02823009F450C08091BB028F3FAF
:1006200009F46FC08091BB02803209F46CC08091E4
:10063000BB02803309F469C084E026C08091BF0208
:100640009091C002A091C102B091C202892B8A2B65
:100650008B2B09F484CF0E9450018090BF029090B0
:10066000C002A090C102B090C2026C197D098E092F
:100670009F0986169706A806B90608F070CF8091E4
:10068000BE020E94760285E01092C4021092E60239
:100690001092C302DF91CF911F910F91FF90EF90C5
:1006A000DF90CF90BF90AF909F908F9008959D91D5
:1006B00091938F5F69CF85EEA5CF8091BF02909116
:1006C000C002A091C102B091C202892B8A2B8B2B50
:1006D00009F49ECF0E9450010091BF021091C00208
:1006E0002091C1023091C2026C197D098E099F09C7
:1006F000061717072807390708F08ACFC0CF81E00F
:10070000C3CF80E0C1CF82E0BFCF83E0BDCF1F93D6
:10071000CF93DF93EA01122FDC0111968D919C910A
:10072000DC01ED91FC910280F381E02D0995C81761
:10073000D90729F4812F0E94970291E0811190E05E
:10074000892FDF91CF911F910895CF93DF93EC0113
:100750008B818823A1F0888191E09093C3028093DC
:10076000E5021092C4021092E60281E00E94970214
:1007700091E0811190E0892FDF91CF9108950E943F
:100780005F0281E08B83CE010E94A503982F811127
:10079000E2CFF1CF0895E091760280917502E817DB
:1007A00030F4F0E0E958FD4F808190E008958FEF3C
:1007B0009FEF089590917602809175022FEF3FEFA1
:1007C000981748F4E92FF0E0E958FD4F208130E018
:1007D0009F5F90937602C901089580917502909170
:1007E0007602891B990B0895CF92DF92EF92FF92C8
:1007F0000F931F93CF93DF937C01CB018A0120914C
:10080000C302222389F0EB016B01C40ED51ECC1567
:10081000DD0569F06991D701ED91FC910190F081BE
:10082000E02DC7010995F3CF642F0E941A02C80179
:10083000DF91CF911F910F91FF90EF90DF90CF90BC
:100840000895CF93DF931F92CDB7DEB769832091D0
:10085000C3022223F9F02091E602203258F021E071
:1008600030E0FC013383228390E080E00F90DF9141
:10087000CF9108958091C402E82FF0E0EB53FD4F33
:10088000998190838F5F8093C4028093E60281E018
:1008900090E0ECCF61E0CE0101960E941A02F7CF02
:1008A000FC01248131E03093C3022093E5021092D1
:1008B000C4021092E6028485682B87EE92E00E94C3
:1008C000210481E00C94970290E080E008958F92DB
:1008D0009F92AF92BF92EF92FF921F93CF93DF93BD
:1008E000C82FD0E0FE01E85EFE4F80810E94C80064
:1008F00011E0892B09F410E0CE018F5F9E4F7C013F
:10090000FC01808181130CC010E0812FDF91CF9119
:100910001F91FF90EF90BF90AF909F908F900895A0
:100920000E94A701CC0FDD1FCC0FDD1FC35BDD4F85
:1009300088809980AA80BB80681979098A099B09F7
:100940006E31710581059105F8F20E94A701688357
:1009500079838A839B83F7011083D7CFFC01808141
:100960008451990B8035910590F4818181508C30B0
:1009700070F4828181508F3150F48381883138F452
:1009800084818C3320F481E095819C3308F080E0F1
:1009900008952F923F924F925F926F927F928F9223
:1009A0009F92AF92BF92CF92DF92EF92FF920F93FE
:1009B0001F93CF93DF935C011B016A01F12CE12CA3
:1009C000D50114968D919C9186010E191F098017EF
:1009D000910708F48C01F501D0810E9450012B0190
:1009E0003C018091BD02811172C0C02F013208F01C
:1009F000C0E2F1E0F093BD0221E0C601801B910B43
:100A0000E816F90608F420E02093BC028FEF8093EB
:100A1000BB021092BA028C0F8093B902A1E0A0939E
:100A2000980280919802DD0FD82BD0939802809184
:100A30009702813009F090C0109297020E945001F5
:100A40002B013C01809198028093BB008091BF02F2
:100A50009091C002A091C102B091C202892B8A2B51
:100A60008B2BA1F00E9450012091BF023091C00257
:100A70004091C1025091C202641975098609970913
:100A8000261737074807590708F442C08091BC0071
:100A900083FDD8CFB5ECB093BC000E9450012B0170
:100AA0003C018091BD02813009F45AC08091BA02A4
:100AB0008C1710F4C091BA02A9E9B2E0E7E7F2E0BE
:100AC00080E08C1751F19D9191938F5FFACF8091C7
:100AD000BF029091C002A091C102B091C202892BC5
:100AE0008A2B8B2B09F47DCF0E9450012091BF02ED
:100AF0003091C0024091C1025091C202641975093F
:100B000086099709261737074807590708F069CF5C
:100B10008091BE020E947602C0E010927602C093DD
:100B20007502C017110609F057C041018E0C9F1CB9
:100B3000E401CE01881999098017910798F5D5012C
:100B400011968D919C91DC01ED91FC910284F385CD
:100B5000E02D09958993EDCFE5EEE093BC009DCFA4
:100B60008091BF029091C002A091C102B091C202D7
:100B7000892B8A2B8B2B09F494CF0E945001209152
:100B8000BF023091C0024091C1025091C20264196B
:100B9000750986099709261737074807590708F086
:100BA00080CFB6CFE00EF11EEC14FD0408F408CFA0
:100BB00081E0DF91CF911F910F91FF90EF90DF9037
:100BC000CF90BF90AF909F908F907F906F905F90ED
:100BD0004F903F902F90089580E0EBCF0F931F939D
:100BE000CF93DF93CDB7DEB728970FB6F894DEBF6B
:100BF0000FBECDBFDC018E010F5F1F4F86E0F801F5
:100C000011928A95E9F715963C9115972AE0832F62
:100C1000622F0E942010982F880F890F880F830F52
:100C20008A8314963C911497832F0E942010982F4A
:100C3000880F890F880F830F8B8313963C9113972E
:100C4000832F0E942010982F880F890F880F830F01
:100C50008C8312963C911297832F0E942010982F1C
:100C6000880F890F880F830F8E8311963C911197FF
:100C7000832F0E942010982F880F890F880F830FD1
:100C80008F833C91832F0E942010982F880F890F0B
:100C9000880F830F88878091730290917402FC0102
:100CA000248135812830310580F0208131E0309376
:100CB000C3022093E5021092C4021092E60221E0E2
:100CC00048E050E0B8010E94870328960FB6F894D8
:100CD000DEBF0FBECDBFDF91CF911F910F91089561
:100CE000EF92FF920F931F93CF93DF9300D000D02A
:100CF00000D01F92CDB7DEB78C011982E09073024D
:100D0000F0907402D70114968D919C911597892BC0
:100D1000E9F08C9191E09093C3028093E5021092E8
:100D2000C4021092E60220E041E050E0BE016F5F95
:100D30007F4FC7010E948703882341F047E050E0BE
:100D4000BE016F5F7F4FC7010E94C904E981EF7741
:100D5000FA81FB804D815E818F81282F30E094E005
:100D6000359527959A95E1F7922F990F990F291BA1
:100D7000220F280FD8012C93852F90E024E0959521
:100D800087952A95E1F7982F990F990F891B880F5E
:100D9000850F11968C931197642F70E034E0759550
:100DA00067953A95E1F7862F880F880F681B660FC5
:100DB000640F12966C9312974F2D50E064E0559596
:100DC00047956A95E1F7842F880F880F481B440FD9
:100DD0004F0D13964C9313972F2F30E074E03595F9
:100DE00027957A95E1F7822F880F880F281B220F0D
:100DF0002F0F14962C9314978E2F90E0F4E0959576
:100E00008795FA95E1F7982F990F990F891B880F0D
:100E10008E0F15968C93C80127960FB6F894DEBFF7
:100E20000FBECDBFDF91CF911F910F91FF90EF903B
:100E300008950F931F93CF938C01C62F0E945004E7
:100E40006C2F6460C8010E9450046C2F6B7FC80136
:100E50000E94500483EC90E00197F1F7CF911F912D
:100E60000F9108950F931F93CF93DF938C01D62F8B
:100E7000C42F607F642B0E94190780E1D89FB001C6
:100E800011246C2BC801DF91CF911F910F910C940D
:100E90001907CF93DF93CDB7DEB728970FB6F89435
:100EA000DEBF0FBECDBF98E0E0E1F1E0DE011196BC
:100EB00001900D929A95E1F790910103981708F42B
:100EC0008FEF90E0880F991F21E030E02C0F3D1F3D
:100ED000820F931FFC016081606840E089EF92E01F
:100EE00028960FB6F894DEBF0FBECDBFDF91CF912D
:100EF0000C94320741E00E94320781E090E00895AF
:100F00000F931F93CF93DF93D62FC72F0E944907CC
:100F10000D2F1C2FC0E0F80161918F01662349F06D
:100F2000C03189F041E089EF92E00E943207CF5F43
:100F3000F2CFC03141F041E060E289EF92E00E94DF
:100F40003207CF5FF6CFDF91CF911F910F910895B8
:100F500085ED8093BC008091BF029091C002A0916A
:100F6000C102B091C2020796A11DB11D23E0B69542
:100F7000A795979587952A95D1F72091BC0024FDD8
:100F800003C01092BD0208954091BF025091C0026B
:100F90006091C1027091C202452B462B472B69F329
:100FA0000097A105B10541F02AE22A95F1F700C0AA
:100FB0000197A109B109E1CF8091BE020C9476029C
:100FC000FF920F931F93CF93DF93EC01F62E0881CE
:100FD0001981C8010E94D30FF81621F06F2DC801A6
:100FE0000E94DB0FCE01DF91CF911F910F91FF90F7
:100FF0000895CF93DF9300D0CDB7DEB71A82198260
:101000006AE5CE0101960E94E0076091060181E049
:1010100090E09A838983CE0101960E94E007609157
:10102000050182E090E09A838983CE0101960E94B7
:10103000E0076091070183E090E09A838983CE0105
:1010400001960E94E0070F900F90DF91CF910895D5
:101050001F920F920FB60F9211242F933F938F93ED
:101060009F93AF93BF938091670290916802A09184
:101070006902B0916A023091660223E0230F2D3796
:1010800058F50196A11DB11D209366028093670259
:1010900090936802A0936902B0936A0280916B02F8
:1010A00090916C02A0916D02B0916E020196A11D0B
:1010B000B11D80936B0290936C02A0936D02B0936C
:1010C0006E02BF91AF919F918F913F912F910F90A1
:1010D0000FBE0F901F90189526E8230F0296A11DB2
:1010E000B11DD2CF1F920F920FB60F9211242F93E2
:1010F0003F934F935F936F937F938F939F93AF93A0
:10110000BF93EF93FF938091330290913402A091AB
:101110003502B0913602892B8A2B8B2BD1F190911D
:101120002E02E0912F02F091300280818927808386
:101130008091330290913402A0913502B091360231
:10114000181619061A061B069CF48091330290911A
:101150003402A0913502B09136020197A109B1097C
:101160008093330290933402A0933502B0933602F9
:10117000FF91EF91BF91AF919F918F917F916F916F
:101180005F914F913F912F910F900FBE0F901F9045
:101190001895809100010E94B301EACF1F920F922F
:1011A0000FB60F9211242F933F934F935F936F933A
:1011B0007F938F939F93AF93BF93EF93FF93809110
:1011C000B900887F803609F44AC0F0F5883209F406
:1011D000A7C018F5803109F49BC0B8F4882309F43E
:1011E000F9C0883009F494C0FF91EF91BF91AF919D
:1011F0009F918F917F916F915F914F913F912F912F
:101200000F900FBE0F901F901895883109F488C079
:10121000803251F78093BB0214C0803409F49DC022
:1012200040F48033B9F38833F9F68093BB0285EC40
:10123000B0C0803509F485C0883509F496C088347B
:1012400099F60E94A807D0CF883909F48CC038F5E8
:10125000883729F050F4883611F0803729F683E07A
:101260008093BD0210922D0257C0883809F47BC0CC
:10127000803919F0803809F0B7CF80912D02803283
:1012800008F071C0E0912D0281E08E0F80932D0255
:101290008091BB00F0E0E35FFD4F80833DC0803B69
:1012A00039F0E0F4803A09F479C0883A09F09CCF2B
:1012B00084E08093BD0210920C0210920B02E09128
:1012C0007102F0917202099580910B0281110FC099
:1012D00081E080930B021092EB0109C0803C09F47D
:1012E000A6CF883C09F4A3CF883B09F07DCFE091DD
:1012F0000C0281E08E0F80930C02F0E0E551FE4F6E
:1013000080818093BB0090910C0280910B0229C0D8
:10131000809198028093BB0085EC8093BC0064CFE1
:101320009091BA028091B902981758F5E091BA02EB
:1013300081E08E0F8093BA02F0E0E756FD4F808186
:10134000E9CFE091BA0281E08E0F8093BA028091DA
:10135000BB00F0E0E756FD4F80839091BA02809188
:10136000B9029817C8F285E8D8CFE091BA0281E0B7
:101370008E0F8093BA028091BB00F0E0E756FD4FDC
:1013800080838091BC0281115CCF81E080939702C1
:1013900084EA8093BC001092BD0226CF85EC809336
:1013A000BC001092BD0280912D02803230F4E09199
:1013B0002D02F0E0E35FFD4F108260912D0270E09E
:1013C000E0916F02F09170028DE092E00995109229
:1013D0002D020ACF1092BB0234CF1092EA02109273
:1013E000E90288EE93E0A0E0B0E08093EB029093F6
:1013F000EC02A093ED02B093EE028AE291E09093AA
:10140000E8028093E7021092FC021092FB028CE348
:1014100091E09093FA028093F9021092020380E225
:101420008093FD0280E18093030382E080930403B4
:10143000109205031092F8021092F7021092F60231
:101440001092F302E8EDF0E081E08C3049F09491E5
:10145000823009F49F5F21E0280F3196992331F003
:101460008093F40281E08093F5020895822FEDCFFE
:10147000CF93DF93CDB7DEB768970FB6F894DEBF92
:101480000FBECDBF789484B5826084BD84B5816081
:1014900084BD85B5826085BD85B5816085BD80913F
:1014A0006E00816080936E001092810080918100B7
:1014B00082608093810080918100816080938100AF
:1014C000809180008160809380008091B100846071
:1014D0008093B1008091B00081608093B0008091D2
:1014E0007A00846080937A0080917A008260809391
:1014F0007A0080917A00816080937A0080917A00EE
:10150000806880937A001092C10062E084E00E94BB
:101510001F0162E085E00E941F0162E086E00E94F8
:101520001F0162E087E00E941F0161E088E00E94E5
:101530001F0161E088E00E94F10061E089E00E9403
:101540001F0161E089E00E94F1000E945F02109299
:10155000FE0280910403823018F098E09093FE021E
:101560008093010362E370E080E090E00E947501E7
:101570006091050389EF92E00E94500468EE73E0E9
:1015800080E090E00E94750160E389EF92E00E94A4
:1015900019070BE416E4C8010197F1F760E389EF3E
:1015A00092E00E941907C8010197F1F760E389EF03
:1015B00092E00E94190783E592E00197F1F760E25B
:1015C00089EF92E00E9419076091FE02606240E09C
:1015D00089EF92E00E94320784E08093FF0240E0AE
:1015E0006CE089EF92E00E94320740E061E089EF11
:1015F00092E00E9432078BE39FE10197F1F780911F
:101600000203882319F080E00E94490782E080935A
:10161000000340E066E089EF92E00E94320740E07C
:1016200062E089EF92E00E9432078BE39FE101972D
:10163000F1F788E08093050360E089EF92E00E9473
:1016400050048091730290917402009711F00E94EF
:10165000F61086E090E00E945A108C0188E6F801AE
:10166000808387EE92E092838183138280E290E010
:101670009583848310937402009373020E945F0227
:10168000FF24F394F801F382C8010E94A5038E01A0
:101690000F5F1F4FC8010E94700686E0F801A3EF9C
:1016A000B2E001900D928A95E1F7188E8091730255
:1016B00090917402FC0124813581232B89F02081D3
:1016C000F092C3022093E5021092C4021092E60247
:1016D00021E041E050E0BE01685E7F4F0E94870339
:1016E00041E050E0B80180917302909174020E9431
:1016F000C904898190E0880F892F881F990B892B55
:1017000059F14BE050E061E770E0C8010E94CA0F58
:10171000CE010A960E940D028A8BE981E154E331E1
:1017200008F00CC10E2E000CFF0BE756F44F0C9482
:101730004010CE0C9E0C9E0CE20C9E0CCC0C9E0C11
:101740009E0C9E0C960C9E0C9E0CD50CE00CDE0C98
:101750009E0C9E0C9E0CDC0C8091F3028983809180
:10176000F4028A838091F5028B838091F6028C8348
:101770008091F7028D838091F8028E83C8010E94C8
:10178000AE04882309F4BDCF90E080E00E94D30F1F
:101790008A35B1F481E090E00E94D30F8093060176
:1017A00082E090E00E94D30F8093050183E090E0F7
:1017B0000E94D30F91E0811101C090E09093070146
:1017C00080910601883118F086E0809306018091AF
:1017D00005018C3318F08EE1809305017CE3C72E60
:1017E000D12CE8E14E2E512C66246A94762C882464
:1017F0008A94982C54010E94A70120916202309192
:1018000063024091640250916502621B730B840B6A
:10181000950B643F71408105910540F10E94A7013D
:1018200060936202709363028093640290936502F6
:10183000CE0142960E9470068A8989838B898A83A9
:101840008C898B838D898C838E898D838F898E8300
:10185000C8010E94AE04882349F086E0FE0172961A
:10186000A3EFB2E001900D928A95E1F73091F60274
:101870002091F702822F90E04CE3349F800D911D60
:10188000112440910801509109018417950709F42A
:101890004AC14091610290930901809308018091AF
:1018A0000701882309F43FC141113DC18091060120
:1018B0003813ABC1809105012813A7C181E0809343
:1018C00061020E94A70160935D0270935E028093A3
:1018D0005F029093600280910001893009F074C02A
:1018E000EDE7F0E0F490F7FC1AC161E089E00E94B6
:1018F0001F01FF2009F4E3C0F2E0FF12F4C0809161
:10190000B100887F83608093B10083E68093B30049
:101910008092330290923402A0923502B092360245
:1019200080917000826080937000F9C08A81813656
:1019300079F18B818E3671F586E08B8BCE01059621
:101940000E940D028C8B48E050E068E670E0C80110
:101950000E94CA0FC8010E940D028D8BCE01049611
:101960000E940D028E8BCE0107960E940D028F8B76
:10197000CE0142960E94EE05C8010E94700686E0E4
:10198000F801A3EFB2E001900D928A95E1F7FCCE49
:1019900081E0D3CF87E0D1CF82E0CFCF8B81823778
:1019A00011F484E0CACF88E0C8CF8B81823711F46C
:1019B00083E0C3CF85E0C1CF89E0BFCF8AE0BDCF50
:1019C0008BE0BBCF8CE0B9CF8F3F09F0A8C089E096
:1019D00080930001EDE7F0E0F4908F2DFFEFFF160C
:1019E00009F49DC021E0F21631F1F21650F0823078
:1019F00009F440C0F7FC93C061E089E00E941F0138
:101A00007BCF14BC15BC84B5826084BD85B5816074
:101A100085BDE5EAF0E08491E82FF0E0EE0FFF1FCE
:101A2000E857FF4F85919491E9EBF0E08491809322
:101A30003202F12C5ACF10928000109281008091D6
:101A40008100886080938100809181008160809313
:101A50008100E5EAF0E08491E82FF0E0EE0FFF1F4F
:101A6000E857FF4F85919491E9EBF0E084918093E2
:101A700031023BCF1092B0001092B1008091B000C3
:101A800082608093B0008091B10081608093B1004A
:101A9000E5EAF0E08491E82FF0E0EE0FFF1FE85751
:101AA000FF4F859194919093300280932F02E9EB40
:101AB000F0E0849180932E0242E0F42E16CF85B59B
:101AC000887F836085BD81E387BD80923B029092D1
:101AD0003C02A0923D02B0923E0280916E00826074
:101AE00080936E001CC021E0F21271C080918100D1
:101AF000887F8160809381008FE79CE090938900CC
:101B0000809388008092370290923802A092390226
:101B1000B0923A0280916F00826080936F0060E023
:101B200088E00E94F10080916102882309F46DC071
:101B3000E12CF12C8F2D0E9467048111E82EF39483
:101B4000E4E0FE12F7CFEE2009F44AC010926102E1
:101B500089E00E94B30161E089E00E94F10061E048
:101B600088E00E94F1000E94A70120913F0230917D
:101B700040024091410250914202621B730B840B60
:101B8000950B683C710581059105C8F00E94A7017D
:101B900060933F027093400280934102909342020F
:101BA00080916102882309F463C161E571E080E0FE
:101BB0000E94800762E671E081E00E94800780E079
:101BC00090E0892B09F417CE0E94000014CE92E019
:101BD000F91621F0F110A3CF8FE776CF8FE796CEDD
:101BE0000E94A70120915D0230915E0240915F0248
:101BF00050916002621B730B840B950B6033754729
:101C00008105910508F0A2CFAECF84E00E94C80004
:101C1000892B09F082C080910101882359F10E942B
:101C2000A70120914D0230914E0240914F025091F8
:101C30005002621B730B840B950B6F31710581058C
:101C40009105C0F00E94A70160934D0270934E026F
:101C500080934F0290935002109201010E94A701BD
:101C60006093490270934A0280934B0290934C0216
:101C7000109248028091480281111FC00E94A70162
:101C80002091490230914A0240914B0250914C02FE
:101C9000621B730B840B950B603D774081059105AA
:101CA00060F091E09093480280910701892780932A
:101CB00007010E94F9071092470281E00E94670421
:101CC000E82E82E00E946704F12C882319F0EE24AC
:101CD000EA94FE2C83E00E946704382F809147022B
:101CE000813009F072C0E114F10409F465C08091FB
:101CF0004602811142C08091450290E048968E0DC7
:101D00009F1DB2010E942C1080934502332309F4D9
:101D10002ACF81E08093460226CF80E00E946704AC
:101D2000882359F2809148028111C7CF80914702E0
:101D300090E0019663E070E00E942C1080934702CF
:101D400010924602813049F4809106018093450249
:101D50008091050180934402B0CF823009F0ADCF6D
:101D60008091F602809345028091F70280934402AD
:101D70008091F80280934302A0CF8091440290E0CA
:101D8000CC968E0D9F1DB6010E942C1080934402AC
:101D9000332309F4E8CE80914502809306018091B7
:101DA0004402809305010E94F90770920901609234
:101DB000080110924702D7CE332309F4D4CE809184
:101DC0004602882309F4A5CFE6CF823009F0CBCEB6
:101DD000E114F10461F12091460221110FC08091BC
:101DE000450290E048968E0D9F1DB2010E942C1076
:101DF00080934502332309F4B6CE20C0213061F42C
:101E00008091440290E0CC968E0D9F1DB6010E94F9
:101E10002C1080934402EECF8091430290E0CC9648
:101E20008E0D9F1DB6010E942C1080934302332318
:101E300009F499CE20914602223020F42F5F20939E
:101E4000460291CE80914302909144022091450236
:101E50003091F5024091F4025091F30259834A8384
:101E60003B832C839D838E83C8010E94EE059DCF0A
:101E70008091470281114DC080910701882309F4A8
:101E800045C084E491E09F938F938091F8021F9264
:101E90008F938091F7021F928F938091F6021F9289
:101EA0008F9382E791E09F938F931F930F930E94EC
:101EB0007F11B80180E00E948007809105011F9288
:101EC0008F93809106011F928F938091F30290E08F
:101ED0008053984F9F938F938091F4021F928F931A
:101EE0008091F5021F928F9385E891E09F938F93E5
:101EF0001F930F930E947F11B80181E00E94800719
:101F00000FB6F894DEBF0FBECDBF59CE8AE491E084
:101F1000BACF2090440230904502E0904602F12C66
:101F2000EE0CFF1C8130C9F46EE971E080E00E9484
:101F300080071F922F921F923F92F701EE5DFE4F96
:101F400081818F9380818F93EBEAF1E0FF93EF9390
:101F50001F930F930E947F11CFCF6AEB71E080E057
:101F60000E948007809143021F928F931F922F92AD
:101F70001F923F92F701E45EFE4F81818F93808133
:101F80008F93E8ECF1E0FF93EF931F930F930E9480
:101F90007F11B2CFFB01DC0102C005900D924150D0
:101FA0005040D8F70895F999FECF92BD81BDF89AB7
:101FB000992780B50895262FF999FECF1FBA92BDB3
:101FC00081BD20BD0FB6F894FA9AF99A0FBE01961A
:101FD00008952F923F924F925F926F927F928F92CD
:101FE0009F92AF92BF92CF92DF92EF92FF920F93A8
:101FF0001F93CF93DF93CDB7DEB7CA1BDB0B0FB6B2
:10200000F894DEBF0FBECDBF09942A88398848886E
:102010005F846E847D848C849B84AA84B984C88404
:10202000DF80EE80FD800C811B81AA81B981CE0FFB
:10203000D11D0FB6F894DEBF0FBECDBFED010895E0
:10204000991B79E004C0991F961708F0961B881F0A
:102050007A95C9F78095089597FB072E16F400949A
:1020600007D077FD09D00E94461007FC05D03EF44A
:10207000909581959F4F0895709561957F4F089534
:10208000EE0FFF1F0590F491E02D0994AA1BBB1BD6
:1020900051E107C0AA1FBB1FA617B70710F0A61B68
:1020A000B70B881F991F5A95A9F780959095BC0189
:1020B000CD0108950F931F93CF93DF938230910545
:1020C00010F482E090E0E0910803F091090330E021
:1020D00020E0B0E0A0E0309799F42115310509F433
:1020E0004AC0281B390B24303105D8F58A819B81E1
:1020F0006115710589F1FB0193838283FE0111C093
:10210000408151810281138148175907E0F0481737
:10211000590799F4109761F012960C931297139641
:102120001C933296CF01DF91CF911F910F910895AB
:102130000093080310930903F4CF2115310551F0E2
:102140004217530738F0A901DB019A01BD01DF01F5
:10215000F801C1CFEF01F9CF9093090380930803F1
:10216000CDCFFE01E20FF31F8193919322503109ED
:1021700039832883D7CF2091060330910703232B7F
:1021800041F420910C0130910D013093070320930D
:10219000060320910A0130910B012115310541F40C
:1021A0002DB73EB740910E0150910F01241B350B06
:1021B000E0910603F0910703E217F307A0F42E1B4A
:1021C0003F0B2817390778F0AC014E5F5F4F24179B
:1021D000350748F04E0F5F1F5093070340930603E7
:1021E000819391939FCFF0E0E0E09CCFCF93DF937A
:1021F0000097E9F0FC01329713821282A091080344
:10220000B0910903ED0130E020E01097A1F42081A6
:102210003181820F931F2091060330910703281705
:10222000390709F061C0F0930703E0930603DF91DB
:10223000CF910895EA01CE17DF07E8F54A815B8167
:102240009E0141155105B1F7E901FB83EA834991EC
:102250005991C40FD51FEC17FD0761F4808191815E
:102260000296840F951FE901998388838281938167
:102270009B838A83F0E0E0E012968D919C91139706
:102280000097B9F52D913C911197CD010296820FDF
:10229000931F20910603309107032817390739F659
:1022A000309751F51092090310920803B093070379
:1022B000A0930603BCCFD383C28340815181840F96
:1022C000951FC817D90761F44E5F5F4F88819981C8
:1022D000480F591F518340838A819B819383828356
:1022E0002115310509F0B0CFF0930903E0930803FD
:1022F0009ECFFD01DC01C0CF13821282D7CFAEE0AA
:10230000B0E0E5E8F1E10C94F70F0D891E8986E055
:102310008C831A8309838FEF9FE79E838D83AE01A1
:10232000475E5F4F6F89788DCE0101960E94A211A2
:102330002F813885020F131FF80110822E96E4E0DA
:102340000C941310ABE0B0E0E8EAF1E10C94E90F73
:102350007C013B018A01FC0117821682838181FF87
:10236000C8C1CE0101965C01F7019381F30193FD91
:10237000859193FF81913F01882309F453C18532F0
:1023800039F493FD859193FF81913F01853229F4C2
:10239000B70190E00E949213E7CF912C212C312CB1
:1023A000FFE1F31538F08B3211F190F4803209F12E
:1023B000833229F137FC3CC020ED280F2A3050F53C
:1023C00036FE20C08AE0989E200D1124922E06C071
:1023D0008D3291F0803371F7689430F8F30193FDFA
:1023E000859193FF81913F018111DACF21C06894DB
:1023F00031F8689432F8F2CF689433F8EFCF6894EC
:1024000034F8ECCFEAE02E9E200D1124222E6894A1
:1024100035F8E4CF8E3229F436FC04C1689436F8DE
:10242000DDCF8C3619F4689437F8D8CF8836B1F2FE
:10243000982F9F7D95549330E0F08336A1F1833738
:10244000C1F1833509F063C02801F2E04F0E511C41
:10245000F801C080D180692D70E036FC02C06FEFBA
:102460007FEFC6010E947C134C01689437F882010B
:102470000AC00C5F1F4FFFE3F98388248394912CDB
:102480006501E89437F833FE2DC0522C8114910475
:1024900071F5552009F468CFB70180E290E00E9401
:1024A00092135A94F6CFF801808189830E5F1F4FF3
:1024B000E4CF2801F2E04F0E511CF801C080D1801A
:1024C000692D70E036FC02C06FEF7FEFC6010E94FD
:1024D00087134C018201D5CFB70180E290E00E94C2
:1024E00092132A942814190409F0B0F7CECFF601FC
:1024F00037FC859137FE81916F01B70190E00E9412
:10250000921351105A94F1E08F1A9108BFCF84367C
:1025100019F0893609F077C0F80137FE6BC0608189
:102520007181828193810C5F1F4FF32DFF763F2EC7
:1025300097FF09C090958095709561957F4F8F4F5B
:102540009F4F689437F82AE030E0A5010E94C2133B
:10255000C82ECA188C2C432C36FE0CC0E89440F8C8
:10256000C91440F434FE05C032FC03C0F32DFE7ED6
:102570004F2E892C44FE95C0FE01EC0DF11D80818B
:10258000803309F087C0242D297E422E842D887047
:10259000582E43FC95C040FE8FC09C2C821418F42A
:1025A0002C0C922C981844FE91C0B70180E390E067
:1025B0000E94921342FE09C088E790E041FE02C0EB
:1025C00088E590E0B7010E949213C91408F48AC00C
:1025D000CA94D12C9FEFC91AD90ACA0CDB1CF60188
:1025E00082916F01B70190E00E949213AC14BD0478
:1025F000B1F74FCF60817181072E000C880B990BCA
:102600000E5F1F4F92CFD32CE894D4F82AE030E02D
:10261000853739F1232D297FD22E8F3601F148F4E9
:102620008835A9F0F701868197812B96E2E10C9419
:102630000510803749F08837A9F7D4FE02C06894A6
:10264000D2F820E130E00DC06894D4F8F6CF34FE23
:1026500003C0822F8660D82E20E132E002C028E03D
:1026600030E0F801D7FE0FC06081718182819381D3
:102670000C5F1F4FA5010E94C213C82ECA183D2C23
:10268000E89437F867CF6081718190E080E00E5F59
:102690001F4FF0CF42FC02C0839478CF8394839481
:1026A00075CF842D867809F471CFF6CFB70180E21B
:1026B00090E00E94921383948214C0F3512C73CF44
:1026C000522C5818821408F46ECFF8CF842D8678D7
:1026D00009F47BCF8BE241FE80E247FC8DE2B7013B
:1026E00090E071CFB70180E390E00E9492139A943A
:1026F0006CCF8FEF9FEF99CFFC0105906150704038
:102700000110D8F7809590958E0F9F1F0895FC01BA
:102710006150704001900110D8F7809590958E0F10
:102720009F1F08950F931F93CF93DF93182F092FA7
:10273000EB018B8181FD09C01FEF0FEF812F902FDF
:10274000DF91CF911F910F91089582FF14C02E81C8
:102750003F818C819D81281739073CF4E881F981FC
:10276000CF0101969983888310838E819F81019682
:102770009F838E83E3CFE885F985812F0995892B87
:10278000A1F3DACFFA01AA27283051F1203181F1E3
:10279000E8946F936E7F6E5F7F4F8F4F9F4FAF4F69
:1027A000B1E03ED0B4E03CD0670F781F891F9A1F7C
:1027B000A11D680F791F8A1F911DA11D6A0F711D30
:1027C000811D911DA11D20D009F468943F912AE03C
:1027D000269F11243019305D3193DEF6CF01089524
:1027E000462F4770405D4193B3E00FD0C9F7F6CF55
:1027F000462F4F70405D4A3318F0495D31FD40521D
:10280000419302D0A9F7EACFB4E0A69597958795B2
:1028100077956795BA95C9F7009761057105089591
:102820009B01AC010A2E069457954795379527953D
:10283000BA95C9F7620F731F841F951FA01D0895D5
:10284000F894FFCFFF010101011E0601FFFF000008
:102850000A0380000000400014005400040506072D
:10286000DA01DF01E401DA01DF01000000002104E8
:10287000F4036404CA03ED03DA03CB030000000091
:102880007A07DF0164040C02414C204F4E00414C9A
:10289000204F4646002A2A2A2042414F20544855BC
:1028A00043202A2A2A004E68616E206E75742064C7
:1028B000652074617400253032643A253032643A00
:1028C000253032642020257300253032642F2530D6
:1028D00032642F2530346420253032643A2530327A
:1028E00064004341492042414F205448554300254C
:1028F00073202020253032643A2530326400434171
:10290000492054484F49204749414E00257320250E
:102910003032643A253032643A25303264004769F7
:0E2920006F20005068757400476961790000EF
:107E0000112484B714BE81FFF0D085E080938100F7
:107E100082E08093C00088E18093C10086E0809377
:107E2000C20080E18093C4008EE0C9D0259A86E02C
:107E300020E33CEF91E0309385002093840096BBD3
:107E4000B09BFECF1D9AA8958150A9F7CC24DD24C4
:107E500088248394B5E0AB2EA1E19A2EF3E0BF2EE7
:107E6000A2D0813461F49FD0082FAFD0023811F036
:107E7000013811F484E001C083E08DD089C08234E0
:107E800011F484E103C0853419F485E0A6D080C0E4
:107E9000853579F488D0E82EFF2485D0082F10E0AE
:107EA000102F00270E291F29000F111F8ED06801E7
:107EB0006FC0863521F484E090D080E0DECF843638
:107EC00009F040C070D06FD0082F6DD080E0C81688
:107ED00080E7D80618F4F601B7BEE895C0E0D1E017
:107EE00062D089930C17E1F7F0E0CF16F0E7DF06D8
:107EF00018F0F601B7BEE89568D007B600FCFDCFD4
:107F0000A601A0E0B1E02C9130E011968C91119780
:107F100090E0982F8827822B932B1296FA010C0160
:107F200087BEE89511244E5F5F4FF1E0A038BF0790
:107F300051F7F601A7BEE89507B600FCFDCF97BE46
:107F4000E89526C08437B1F42ED02DD0F82E2BD052
:107F50003CD0F601EF2C8F010F5F1F4F84911BD097
:107F6000EA94F801C1F70894C11CD11CFA94CF0C13
:107F7000D11C0EC0853739F428D08EE10CD085E9AC
:107F80000AD08FE07ACF813511F488E018D01DD067
:107F900080E101D065CF982F8091C00085FFFCCF94
:107FA0009093C60008958091C00087FFFCCF809118
:107FB000C00084FD01C0A8958091C6000895E0E648
:107FC000F0E098E1908380830895EDDF803219F02E
:107FD00088E0F5DFFFCF84E1DECF1F93182FE3DFCA
:107FE0001150E9F7F2DF1F91089580E0E8DFEE27F6
:047FF000FF270994CA
:027FFE00040479
:00000001FF
